:020000040800F2
:10000000E804002005010008FF1B00089117000804
:10001000FD1B00086D080008E91E00080000000034
:10002000000000000000000000000000031C0008A9
:100030006F08000800000000011C0008051C0008F3
:100040001F0100081F0100081F0100081F01000810
:100050001F0100081F0100081F0100081F01000800
:100060001F0100081F0100081F0100081F010008F0
:100070001F0100081F0100081F0100081F010008E0
:100080001F0100081F0100081F0100081F010008D0
:100090001F0100081F0100081F0100081F010008C0
:1000A0001F0100081F0100081F0100081F010008B0
:1000B0001F0100081F010008000000001F010008C8
:1000C0001F01000800000000000000001F010008E0
:1000D00000000000DD1E00081F01000800000000F5
:1000E0001F0100081F0100081F010008DFF810D0E1
:1000F00000F02CFB0048004719280008AFF30080EF
:10010000E80400200648804706480047FEE7FEE76F
:10011000FEE7FEE7FEE7FEE7FEE7FEE7FEE7FEE7B7
:10012000671C0008ED000008202A04DB203A21FAB1
:1001300002F00021704721FA02F3D040C2F1200200
:100140009140084319467047D2B201E000F8012BF4
:10015000491EFBD270470022F6E710B513460A4647
:1001600004461946FFF7F0FF204610BDF0B480EAC0
:100170000102D40F4200B2EB410F02D20246084600
:1001800011464A0042D0C30DDDB2C1F3C752AD1AC9
:10019000202D35DAC1F3160141F4000204B15242B8
:1001A000C5F1200602FA06F12A411044B3EBD05FF4
:1001B00023D0C4B1012DA0EBC35009DCF0BC4FF03B
:1001C000004202EAC352DBB200F5000000F0D8B8EA
:1001D000400000F1807000EBC350A0F1807040EA55
:1001E000D170490009E0490841EAC071A0EBC35051
:1001F00000F50000400800EBC350F0BC00F0B7B8B9
:100200006142012202EB4101001BF6E7F0BC70479E
:1002100081F00041AAE780F00040A7E730B480EA0F
:10022000010202F0004530F0004221F0004013D0FE
:1002300090B1C30DD40DC2F31601C0F31600E41A39
:1002400041F4000140F400027D34914201D3641C6A
:1002500000E04900002C02DA30BC002070474FF467
:1002600000000023914201D3891A034340084FEA5A
:100270004101F7D151B1914202D14FF0004105E067
:1002800002D24FF0010101E06FF0010103EBC45015
:10029000284430BC00F06BB8420005D0C0F3C75210
:1002A0005242914201DC0020704700EBC150704780
:1002B00096230022114600F063B800F0004230F0AF
:1002C00000400AD0C10D01F56071C0F3160042EA8A
:1002D0000151C20840071143704700200146704792
:1002E00030B50B46014600202022012409E021FA06
:1002F00002F59D4205D303FA02F5491B04FA02F503
:100300002844151EA2F10102F1DC30BD2DE9F05F99
:100310000546002092469B46884606468146402474
:100320001BE02846414647462246FFF7FDFE53465E
:100330005A46C01A914110D311461846224600F081
:1003400017FA2D1A67EB01084F46224601200021BB
:1003500000F00EFA17EB00094E41201EA4F1010433
:10036000DFDC484631462A464346BDE8F09F002977
:10037000A8BF7047401C490008BF20F0010070472B
:1003800010B4B0FA80FC00FA0CF050EA010404BF8B
:1003900010BC704749B1CCF1200421FA04F411FAE1
:1003A0000CF118BF012121430843A3EB0C01CB1D25
:1003B0004FEA00614FEA102042BF002010BC704796
:1003C00000EBC35010440029A4BF10BC7047401C70
:1003D000490008BF20F0010010BC70472DE9FE4F16
:1003E000804681EA0300C00F0C46009021F00041D6
:1003F00023F00045B8EB0200A94105D24046214652
:1004000090461C460B46024623F00040104347D05E
:10041000270DC7F30A00C3F30A510290401A019056
:1004200040286BDAC3F3130040F4801B0098924617
:1004300020B10023D2EB030A63EB0B0B0198594662
:10044000C0F14002504600F093F906460D46504672
:100450005946019A00F09BF910EB08006141002415
:1004600087EA115284EAE7731A4340D0009A62B3D4
:10047000019A012A4FEA075215DC001B61EB0201C9
:100480004FF0004202EA0752CDE90042001C41F55C
:10049000801132462B4600F09BF903B0BDE8F08F87
:1004A00040462146F9E7001B61EB0201001C41F5C3
:1004B000801300185B412018A2F5001747EB0301D9
:1004C00040EAD570B6196D4111E06D084FEA360665
:1004D00045EAC0754FEA0752001B61EB0201001CA0
:1004E00041F5801149084FEA300000195141324668
:1004F0002B4603B0BDE8F04F00F05BB90098012235
:1005000040000023D0EB020263EBE0730098214629
:100510004FEAE074B8EB000061EB0401E9E783F017
:1005200000435BE781F0004158E72DE9FE4F81EA87
:10053000030404F0004421F0004100944FF0000B4C
:1005400023F0004350EA01045ED052EA03045BD07A
:10055000C3F30A54C1F30A552C44A4F2F3340194B2
:10056000A0FB0254C1F3130141F48011C3F3130340
:1005700043F4801301FB024400FB034E840A970AF4
:1005800044EA815447EA8357A4FB076802958D0A21
:1005900005FB07854FEA932C04FB0C542705029DAD
:1005A0004FEA065847EA1637B5EB08056EEB070C1D
:1005B000870E920E47EA811742EA8312A7FB0201D7
:1005C000B6EB0B0164EB00042B0D43EA0C335E1811
:1005D00044EB1C50DA465146E7FB0201C5F3130415
:1005E0004FEA0B3343EA14534FEA0432019C43EAC7
:1005F0000603A4F10C040294009CCDE900B400F0C1
:10060000E7F803B0BDE8F08F00200146F9E72DE9D7
:10061000F04D81EA030404F0004B21F0004514463C
:100620004FF0000A23F0004150EA050220D054EABE
:1006300001021DD0C5F30A570246C5F31303C1F3E7
:100640001300C1F30A5640F4801543F48013A7EB5E
:100650000608101BD64608F2FD3873EB050002D3DE
:1006600008F1010801E092185B41B8F1000F03DACC
:1006700000200146BDE8F08D00204FF480110646B1
:1006800084460EE0171B73EB050705D3121B63EBC3
:10069000050306434CEA010C49084FEA3000921862
:1006A0005B4150EA0107EDD152EA030012D082EA21
:1006B000040083EA0501084305D0101BAB4106D2B4
:1006C0000122002306E000224FF0004302E06FF019
:1006D000010253101AEB06004CEB085110EB0A0014
:1006E00041EB0B01BDE8F04D00F063B8C1F30A52D5
:1006F000C1F3130140F2FF3341F480119A4202DA50
:1007000000200146704740F233439A42A2F233423E
:1007100002DC5242FFF708BD00F02AB830B5041ED3
:1007200071F1000404DB4FF00044404264EB01012E
:10073000141E73F1000405DB1C464FF000435242C7
:1007400063EB0403994208BF904230BD064C074D4D
:1007500006E0E06840F0010394E807009847103491
:10076000AC42F6D3FFF7C6FCC4280008E428000812
:10077000202A04DB203A00FA02F100207047914061
:10078000C2F1200320FA03F3194390407047202A56
:1007900006DBCB17203A41FA02F043EAE07306E0A9
:1007A00041FA02F3D040C2F12002914008431946B9
:1007B000704710B5141E73F1000408DA401C41F1B3
:1007C000000192185B411A4301D120F0010010BDD5
:1007D0002DE9F04D92469B4611B1B1FA81F202E04B
:1007E000B0FA80F220329046FFF7C2FF04460F466F
:1007F00040EA0A0041EA0B0153465A46084313D027
:10080000114653EA010019D0C8F140025046FFF7E3
:100810008BFC05460E46504659464246FFF7A8FF58
:10082000084305D0012004E020463946BDE8F08D9C
:100830000020054346EAE0762C4337430A986305D7
:10084000E40AA0EB08000022FD0A44EA47540A30FB
:1008500002D500200146E9E7010510196941DDE9EB
:10086000084500196941BDE8F04DA2E7FEE7704771
:1008700072B6FEE770B5044601F054F8002001F0AE
:1008800017F801F0B3F8204601F012F801F0AEF8C5
:1008900001F048F8012001F00BF801F0A7F8012061
:1008A00000F0CCFF0546012000F0C8FF04460120FF
:1008B00000F0C4FF01F066F845EA0420FFF7F8FCF9
:1008C0000121FFF7E9FC0449FFF7A2FCBDE87040F5
:1008D0000249FFF7A3BC00000066D5460000C842ED
:1008E00010B590F821100022022905D0042181635F
:1008F00080F82020012010BD01680B6823F00E0352
:100900000B6001680B6823F001030B6090F8403026
:10091000C46B012101FA03F3636080F8211080F8B1
:100920002020104610BD000010B590F821100024C2
:10093000022903D00421816301243DE001680A6893
:1009400022F00E020A6001680A6822F001020A60C1
:100950001A4A0168914201D1012121E0174A14325B
:10096000914201D110211BE0144A2832914201D159
:10097000891515E0114A3C32914201D189140FE0EA
:100980000E4A5032914202D14FF4803108E00B4AB6
:100990006432914202D14FF4801101E04FF0807136
:1009A000064A083A5160012180F82110002180F8A0
:1009B0002010416B01B18847204610BD080002405D
:1009C00070B5044600F000F90546601C02D00448EA
:1009D0000078044400F0F8F8401BA042FAD370BD40
:1009E000000000202DE9F84FDFF89C91002409F168
:1009F000040A0AF1040B23460F270BF1040EBBE097
:100A00000125A5402A40AA4276D1DFF880C14E6870
:100A1000A6EB0C0866452BD00DDC032E34D005DC8C
:100A200036B3012E19D0022E2FD11BE0112E16D075
:100A3000122E2AD119E0B8F5881F19D006DCB8F5B6
:100A4000803F15D0B8F5801F1FD111E0B8F5001F09
:100A50000ED0B8F5041F18D10AE0CB6815E0CB68BA
:100A60001B1D12E0CB6808330FE0CB680C330CE0A1
:100A70008B682BB1012B4FF0080303D0456104E0D4
:100A8000042302E0056100E00023FF2A01D80646A6
:100A900001E000F104064FEA840501D9A5F1200523
:100AA000D6F8008007FA05FC28EA0C0803FA05F5D9
:100AB00048EA0508C6F800804D68ED005BD5344D66
:100AC000AE6946F00106AE61AD6924F0030605F09B
:100AD000010500952F4D06EB050CDCF80850A60724
:100AE000360F07FA06F825EA0805DFF8AC8040451E
:100AF00003D14FF0000810E03DE0DFF8A080404552
:100B000002D14FF0010808E0DFF89480404502D19F
:100B10004FF0020801E04FF0030808FA06F848EA2F
:100B20000508CCF808804D68D9F80060ED034D4603
:100B300001D5164300E096432E604D68DAF8006058
:100B4000AD03554601D5164300E096432E604D682F
:100B5000DBF80060ED025D4601D5164300E09643E8
:100B60002E604D68DEF80060AD02754601D5164373
:100B700000E096432E60641C0A6832FA04F57FF4A4
:100B80003FAFBDE8F88F00000004014000001110E5
:100B9000001002400000014000080140000C01402C
:100BA000001001408068084000D001207047C268F2
:100BB00021EA02030A4043EA0241016170470AB197
:100BC000016170470904FBE7014880687047000035
:100BD000000000200248816802781144816070475B
:100BE00000000020074810B5016841F010010160C5
:100BF000032000F079F8002000F006F800F024F857
:100C0000002010BD0020024070B50D4D04464FF489
:100C10007A712878B1FBF0F00A490968B1FBF0F06D
:100C200000F0F0FA48B9102C07D200222146501EDD
:100C300000F03AF800206C6070BD012070BD00002B
:100C4000000000200C0000200E4808B5816941F02A
:100C500001018161816901F001010091C16941F0E7
:100C60008051C161C06900F080500090052000F003
:100C70003BF80548416821F0E06141F000714160B6
:100C800008BD00000010024000000140002809DB00
:100C900000F01F02012191404009800000F1E02096
:100CA000C0F8001170470000F0B40E4B1B680C46F2
:100CB000C3F30223C3F10705042D00D90425191D30
:100CC000072901D2002300E0DB1E012606FA05F108
:100CD000491E214099409E40761E16403143F0BC8B
:100CE00001F014B90CED00E0064900F007020868B5
:100CF0004FF6FF03184040EA0220034A1043086001
:100D0000704700000CED00E00000FA052DE9F04707
:100D10000F46050061D0434E306800F00700B8422E
:100D200009D2306820F0070038433060306800F0A6
:100D30000700B84251D128683B4C810712D54007C3
:100D400003D5606840F4E06060602878000703D550
:100D5000606840F4605060606068A96820F0F0004E
:100D6000084360602878C00728D06868012810D040
:100D70002168022810D0890700292EDA616821F045
:100D8000030101436160FFF71FFF804641F288398C
:100D90000DE021688903EFE78901EDE7FFF714FF14
:100DA000A0EB0801494502D90320BDE8F08760683F
:100DB000696800F00C00B0EB810FEFD1306800F0F3
:100DC0000700B8420BD9306820F007003843306084
:100DD000306800F00700B84201D00120E5E728782C
:100DE000400705D56068E96820F4E060084360606A
:100DF0002878000706D56068296920F4605040EA29
:100E0000C100606000F038F86168084AC1F303115E
:100E1000515CC8400649086006480068FFF7F4FEC8
:100E20000020C2E70020024000100240AC28000869
:100E30000C000020040000200448054900684968AF
:100E4000044AC1F30221515CC84070470C000020E5
:100E500000100240BC2800080448054900684968A1
:100E6000044AC1F3C221515CC84070470C00002005
:100E700000100240BC28000812A185B00FC98DE8FF
:100E80000F0014A0144A006804905168134801F040
:100E90000C03042B10D0082B0ED1C1F38343C903DC
:100EA0001DF803000AD5516804AAC1F34041515C02
:100EB0000A4A5043B0FBF1F005B070470849484377
:100EC000FAE7000002030405060708090A0B0C0DE7
:100ED0000E0F1010010200000010024000127A00F4
:100EE00000093D002DE9F84F040070D02078C04D76
:100EF000C00749D06868C0F38100012807D068683E
:100F0000C0F38100022809D16868C00306D52868AB
:100F1000800339D560680028E7D035E06068B0F517
:100F2000803F0BD010B1B0F5A02F11D0286820F46D
:100F300080302860286820F4802002E0286840F48F
:100F400080302860606890B1FFF73EFE06460AE0F8
:100F5000286840F480202860F0E700BFFFF734FEE7
:100F6000801B642873D828688003F7D50CE0FFF74E
:100F70002BFE064605E000BFFFF726FE801B642817
:100F8000F0D828688003F7D420789A4E80074FF075
:100F900001094FF0000839D5686810F00C0F07D030
:100FA0006868C0F38100022809D16868C00306D4CC
:100FB0002868800714D52069012808D110E020692D
:100FC000B0B1C6F80090FFF7FFFD074605E00AE163
:100FD000FFF7FAFDC01B0228C4D828688007F7D5A0
:100FE0002868616920F0F80040EAC10028600DE03F
:100FF000C6F80080FFF7E8FD074604E0FFF7E4FDD0
:10100000C01B022823D828688007F7D4207800075F
:101010002CD57948A169D9B1C0F80090FFF7D4FD6B
:10102000074604E0FFF7D0FDC01B02280FD8686A0E
:101030008007F7D571484FF4FA510068B0FBF1F022
:10104000009000BF0098411E0091FAD20EE080E0AF
:10105000C0F80080FFF7B8FD074604E0FFF7B4FDD5
:10106000C01B022875D8686A8007F7D4207840072B
:1010700060D5E8690027C00008D4E86940F08050D6
:10108000E861E869012700F0805000905C48016841
:10109000C90513D40168834641F480710160FFF7EC
:1010A00093FD824606E000BFFFF78EFDA0EB0A002D
:1010B00064284ED8DBF80000C005F5D5E0680128AB
:1010C0000AD008B1052813D0286A20F00100286250
:1010D000286A20F0040002E0286A40F0010028623B
:1010E000E06841F2883B98B1FFF76EFD82460BE065
:1010F000286A40F004002862EEE700BFFFF764FDB5
:10110000A0EB0A0159455AD8286A8007F6D50CE0A9
:10111000FFF75AFD824605E0FFF756FDA0EB0A01F6
:1011200059454CD8286A8007F6D41FB1E86920F0E9
:101130008050E861E06988B36968C1F381010229E0
:1011400044D00228C6F8608004D0FFF73DFD044675
:1011500038E034E0FFF738FD074604E0FFF734FDE0
:10116000C01B02282BD828688001F7D4206AB0F56C
:10117000803F05D16868A16820F4003008436860AA
:10118000D4E908010843696821F4741108436860D0
:10119000C6F86090FFF718FD044606E025E000BFA2
:1011A000FFF712FD001B022809D828688001F7D537
:1011B0001BE000BFFFF708FD001B022802D9032037
:1011C000BDE8F88F28688001F4D40EE00128F7D03C
:1011D0006868226A00F48031914204D1616A00F4A7
:1011E0007010884201D00120EAE70020E8E7000003
:1011F0000010024000004242800442420C000020E5
:101200000070004010B5401EB0F1807F01D3012076
:1012100010BD4FF0E02460610F21601700F076FEF2
:101220000020A06107202061002010BD70B590F85B
:101230003C20012A23D0012480F83C40022280F87F
:101240003D2003685A689D6822F070060A683243A0
:101250005A600C4B02689A4205D0B2F1804F02D01E
:10126000094B9A4204D1496825F0800319439160E3
:1012700080F83D40002180F83C10084670BD0220F7
:1012800070BD0000002C01400004004010B50400B7
:1012900003D094F83D0010B107E0012010BD0020FC
:1012A00084F83C00204600F01FF8022084F83D003E
:1012B000211D206800F0D8FC012084F8460084F845
:1012C0003E0084F83F0084F8400084F8410084F830
:1012D000420084F8430084F8440084F8450084F810
:1012E0003D00002010BD000008B50068B0F1804F3F
:1012F00008D10548C16941F00101C161C06900F030
:101300000100009008BD00000010024090F83D1060
:10131000012901D001207047022180F83D100068AA
:101320000949884205D0B0F1804F02D00749884270
:1013300004D1816801F00701062903D0016841F05A
:101340000101016000207047002C014000040040B2
:1013500001680A6A41F211131A4207D10A6A9B1006
:101360001A4203D10A6822F001020A60012180F8C2
:101370003D100020704770B5044690F83C000128ED
:1013800017D0012584F83C50022084F83D002068E5
:10139000826822F0770222F47F4282600868502837
:1013A00030D00DDC20284DD005DC98B310283BD17F
:1013B00048E0022070BD302844D0402834D139E0C4
:1013C000602828D0702806D0B0F5805F2CD0B0F50A
:1013D000005F29D10AE0CB68D1E90121206800F043
:1013E00071FC2068816841F0770109E0CB68D1E9A0
:1013F0000121206800F066FC2068816841F480418A
:10140000816011E0CA684968206800F06DFC5021D5
:10141000206807E016E0CA684968206800F075FC9B
:101420006021206800F058FC84F83D50002084F8CA
:101430003C0070BDCA684968206800F055FC402136
:101440002068EFE7226801461046EBE770477047D7
:10145000F8B5026804461068D168536910F00F0FA0
:101460004FF0000553D003F0010601F490773743A5
:101470005FD0C20705D0CA0503D5226C42F0010235
:101480002264420705D5DA0703D0226C42F002023B
:101490002264820705D5DA0703D0226C42F00402E9
:1014A0002264020707D501F02002324303D0226CE8
:1014B00042F008022264226C002A34D0800604D54F
:1014C000880602D5204600F052FC20684069216C55
:1014D000C0F38010090700D430B3204600F02FFC81
:1014E0002068416949061BD5416921F040014161ED
:1014F000A06BA8B158494163A06BFFF715FA00280B
:1015000011D0A06B416B01B0BDE8F04008478306E5
:101510000FD58B060DD52046BDE8F84000F027BC5E
:101520002046FFF794FFF8BD2046FFF790FF2564A3
:10153000F8BD266B2023012E52D1C60650D5CE060B
:101540004ED5106850680090506940062AD5A16BAE
:10155000086840680004000CEAD0A68D8642E7D9EE
:10156000E0858869202818D0D06820F48070D06089
:101570002068416921F0010141612068416921F041
:101580004001416184F83E3025632068C16821F044
:101590001001C160A06BFFF7A3F9A08DE18D401A87
:1015A00081B219E0A08DE18D401A81B2E08D002852
:1015B000BED00029BCD0D06820F49070D0602068E4
:1015C000426922F00102426184F83E3025632068BE
:1015D000C26822F01002C2602046FFF737FFF8BD54
:1015E00005062BD50D0629D594F83D002128F6D106
:1015F000A068B0F5805F01D12069B0B1206A411CBC
:101600002162216800784860E08C401E0004000CD4
:10161000E084E4D12068C16821F08001C1602068C5
:10162000C16841F04001C160F8BD206A0088C0F384
:1016300008005060206A801C2062E5E74006F3D570
:101640004806F1D5D168204621F04001D16084F8E8
:101650003D3000F09CF8F8BD2F1D000870B5040067
:1016600004D094F83D00002510B106E0012070BDC3
:1016700084F83C50204600F023F8242084F83D00F4
:101680002068C16821F40051C160204600F0CAFB07
:101690002068016921F4904101612068416921F0CD
:1016A0002A0141612068C16841F40051C16025648C
:1016B000202084F83D0084F83E00002070BD00002A
:1016C00070B586B0002400940194029403942B4ECC
:1016D00003682B49022003222A4DB34229D18B698A
:1016E00043F480438B618B6903F4804304938B69DB
:1016F00043F004038B618969039201F004010491B2
:101700000102CDE9001069462846FFF76BF928155C
:10171000CDE90004694628460294FFF763F90122E7
:1017200011462520FFF7C0FA2520FFF7AFFA06B0D3
:1017300070BD154EB342FAD1CB6943F40033CB618F
:10174000CB6903F4003304938B6943F004038B618A
:101750008969039201F0040104910421CDE900108C
:1017600069462846FFF73EF90820CDE9000469469E
:1017700028460294FFF736F9D9E700000038014007
:1017800000100240000801400044004070477047CC
:10179000FEE7000070B5134D4FF4006400222146AF
:1017A0002846FFF70CFA2B1D1915186820F47062F3
:1017B00042F44070186000222846FFF700FA022029
:1017C00001F00AF8012221462846FFF7F8F9022025
:1017D00001F002F821462846BDE870400022FFF7DC
:1017E000EEB90000000C014070B5134D4FF40064D9
:1017F000002221462846FFF7E2F92B1D186820F445
:10180000706242F440700122186091022846FFF78E
:10181000D6F9022000F0E0FF012221462846FFF71A
:10182000CEF9022000F0D8FF21462846BDE87040DE
:101830000022FFF7C4B90000000C01402DE9F04779
:1018400080461A480024C6140168254621F47061B8
:1018500041F40061071F4FF48069016000223146A6
:101860003846FFF7ACF9022000F0B6FF01223146FE
:101870003846FFF7A4F96006040E49463846FFF7DC
:1018800091F908B1641CE4B2012000F0A5FF6D1CC1
:10189000EDB2082DE2D3B8F1000F04D0FFF77AFFC4
:1018A0002046BDE8F087FFF79FFFF9E7040C0140F1
:1018B0002DE9F04105461A480022C6140168071FA9
:1018C00021F4706141F44071016031463846FFF700
:1018D00076F900244FF48068280601D5012200E043
:1018E000002241463846FFF76AF96806050E0220D5
:1018F00000F072FF012231463846FFF760F90620FA
:1019000000F06AFF002231463846FFF758F90220FE
:1019100000F062FF641CE4B2082CDDD3BDE8F08166
:10192000040C014070B51648012204150168051F1A
:1019300021F4706141F44071016021462846FFF7AF
:101940003EF9052000F048FF0122D6023146284624
:10195000FFF735F9052000F03FFF00222146284619
:10196000FFF72DF9052000F037FF00223146284609
:10197000FFF725F9BDE87040052000F02DBF0000FD
:10198000040C014070B51848016821F4706141F4FD
:1019900040710160052000F01FFF134D4FF40064FB
:1019A0002D1F002221462846FFF709F9052000F0E7
:1019B00013FF6610002231462846FFF700F9052084
:1019C00000F00AFF012221462846FFF7F8F805201B
:1019D00000F002FF012231462846FFF7F0F8BDE88B
:1019E0007040042000F0F8BE040C01402DE9F041E5
:1019F0001848002406150168051F21F4706141F4A0
:101A000000610160012231462846FFF7D8F8012025
:101A100000F0E2FE0122D70239462846FFF7CFF850
:101A2000012000F0D9FE08E0641CE4B2FA2C04D9CD
:101A3000FFF7A8FF0120BDE8F08131462846FFF7F7
:101A4000B1F80028F0D1002239462846FFF7B7F850
:101A50000020F0E7040C014070B586B000252F4847
:101A60000095019502950395816941F0100181610E
:101A7000816901F010010491816941F020018161C7
:101A8000816901F020010491816941F004018161C3
:101A9000816901F004010491816941F008018161CB
:101AA00080691F4E00F00800049001224FF470512D
:101AB0003046FFF784F81020CDE90005012469467F
:101AC00002941848FEF78EFF4FF44060CDE9000401
:101AD0000320CDE9024069463046FEF783FF20032C
:101AE000CDE900040220CDE9020469463046FEF744
:101AF00079FF6003CDE900040294694630460394FF
:101B0000FEF770FF4FF44040CDE9000569460294AE
:101B10003046FEF767FF06B070BD000000100240BF
:101B2000000C01400008014010B586B000241648A2
:101B3000009401940294039404944FF0804105941E
:101B400001604721C0E901144FF6FF71C0E9031499
:101B50008461FFF79BFB08B1FEF78AFE4FF48050CB
:101B6000009069460848FFF706FC08B1FEF780FEC2
:101B7000049404A904480594FFF758FB002801D0F9
:101B8000FEF776FE06B010BD140000200C4810B51C
:101B90000A4901604FF4E1314160002181600C226B
:101BA000C160C0E904128161C161FFF757FD0028DF
:101BB00003D0BDE81040FEF75BBE10BD0038014009
:101BC0005C0000200C4810B50A4901604FF4E13177
:101BD0004160002181600C22C160C0E90412816172
:101BE000C161FFF73BFD002803D0BDE81040FEF7C0
:101BF0003FBE10BD00440040A0000020FEE7FEE70D
:101C000070477047FEF7E6BF30B58FB028216846B1
:101C1000FEF7A1FA14210AA8FEF79DFA0121080493
:101C2000CDE900100024029402250491CDE907506B
:101C30004FF4E01009906846FFF754F908B172B606
:101C4000FEE70F20CDE90A054FF48060CDE90C4096
:101C500002210AA80E94FFF759F8002801D072B6A5
:101C6000FEE70FB030BD704770B50268134B144CDF
:101C70004FF08046984203D0B04201D0A04203D139
:101C800022F070054A682A43984203D0B04201D03E
:101C9000A04203D122F44074CA6822434C6922F066
:101CA0008002224302608A68C2620A6882629842A5
:101CB00001D1096901630121416170BD002C01401E
:101CC0000004004010B5846842EA032224F47F44F3
:101CD0000A432243826010BD826822F070020A43E8
:101CE00042F007018160704710B5036A046A24F06E
:101CF00001040462846924F0F00444EA021423F02D
:101D00000A020A438461026210BD10B5036A23F01F
:101D1000100303628369046A23F4704343EA0232C6
:101D200024F0A00343EA01118261016210BD10B5E5
:101D3000406A0021C185C184FFF789FB10BD01689D
:101D4000CA6822F49072CA6001684A6922F00102EE
:101D50004A61016B012904D10168CA6822F01002AE
:101D6000CA60202180F83E1000210163704708B549
:101D700090F83E10222901D0022008BD82684FF45D
:101D800080539A4201D1016921B1816A9A421BD0E4
:101D90004AB10AE00268816A5268C2F308020A8006
:101DA000816A891C08E0026972B10268526802F017
:101DB0007F020A70816A491C8162C18D491E090433
:101DC000090CC18503D019E002685268F1E7016887
:101DD000CA6822F02002CA600168CA6822F48072D0
:101DE000CA6001684A6922F001024A61202180F834
:101DF0003E10016B012903D0FFF7C8FC002008BD8D
:101E0000002101630168CA6822F01002CA600168FB
:101E10000A68D20602D50A6849680091818DFFF7E9
:101E200015FBEBE770B5044600680169E26821F430
:101E30004051114301612169A06808436169084369
:101E40002168CA6841F20C639A430243CA60206861
:101E50004169A26921F44071114341611E49206822
:101E6000884202D1FEF7F8FF01E0FEF7E5FF00EB44
:101E7000C00101EB0012606864218000B2FBF0F346
:101E8000B3FBF1F36FF018067343B2FBF0F5B2FB4E
:101E9000F0F605EB8305322303EB0515B5FBF1F5F1
:101EA000B6FBF1F605F0F00505EB0615B2FBF0F612
:101EB000B2FBF0F0B0FBF1F06FF01802504306EB0C
:101EC000800003EB0010B0FBF1F0216800F00F0080
:101ED0002844886070BD0000003801400148FFF7C9
:101EE000B7BA00005C000020FEE700000FB4054B0D
:101EF00010B503A9044A029800F0EAF810BC5DF896
:101F000014FB000001280008100000200907090E3A
:101F1000002804DB00F1E02080F80014704700F096
:101F20000F0000F1E02080F8141D704702E008C89F
:101F3000121F08C1002AFAD170477047002001E043
:101F400001C1121F002AFBD1704700002DE9FF5F7D
:101F500082B00021DDE90430020DDDF840B003431A
:101F600018D044F61050A2F2FF32424315141198D3
:101F700001281FD0A5EB0B00401C5FEA000A4FF0C0
:101F800000064E4FDFF83891B046504615D5CAF1DD
:101F9000000413E0119801244AA3012801D16FEA3B
:101FA0000B010298119AC0E90031C0E9024206B063
:101FB000BDE8F09FCBF10000DFE704460021404A76
:101FC000491842EB0450CDE9001012E0E00707D0B9
:101FD00032463B4640464946FEF7A7FA80468946C8
:101FE00032463B4610461946FEF79FFA06460F4614
:101FF0006410002CEAD1DDE90401DDE90023BAF127
:10200000000F06DAFEF791FA42464B46FEF78DFACC
:1020100005E0FEF7FCFA42464B46FEF7F8FA0446A6
:102020000E460022284BFEF779FB03D84FF0FF3015
:10203000014607E00022254B20463146FEF7CEF947
:10204000FEF754FB102409E0002C0ADB0A220023CF
:10205000FEF75CF9039B30321A55641E50EA010208
:10206000F2D1641C039AC4F111031444119A012A99
:1020700003D0012208430DD10AE0084304D0002018
:102080004FF0110B119072E7A3EB0B056D1E0DE0E5
:102090005B4504DD4FF0000205F1010504E003DAC1
:1020A0004FF00002A5F10105002AECD00298119929
:1020B000C0E90231C0E9004579E7000000001440A2
:1020C0000000F03F300000000000F0430000E03F5F
:1020D0002DE9FF4F95B09A46884606460025EEE169
:1020E000252877D100242746F94A0121039400E0EE
:1020F000044316F8013F203B01FA03F01042F7D1E8
:1021000030782A2811D06FF02F033078A0F13002F8
:10211000092A16D8039A44F0020402EB820203EB68
:1021200042021044761C0390EFE758F8042B039208
:10213000002A03DA504244F40054039044F00204AD
:10214000761C30782E2816D116F8010F44F00404BE
:102150002A280DD06FF02F023078A0F13003092B20
:1021600009D807EB870302EB4303C718761CF3E794
:1021700058F8047B761C30786C280FD006DC4C288D
:1021800017D068280DD06A2814D104E0742810D024
:102190007A280FD10DE044F400140AE044F48014CE
:1021A00001E044F440147278824202D104F58014B4
:1021B000761C761C307866280BD013DC582877D034
:1021C00009DC002875D04528F6D04628F4D04728E9
:1021D0001AD193E118E0632835D0642879D06528B6
:1021E00012D18BE1702873D008DC6728F1D0692800
:1021F0006FD06E280DD06F2806D1ACE073282CD09C
:10220000752874D0782853D05246179990476D1C82
:1022100054E1C4F30250022809D003280DD0D8F8A5
:10222000001004280DD00D6008F1040846E1D8F82C
:102230000010EA17C1E90052F6E7D8F800100D8047
:10224000F2E70D70F0E718F8041B8DF8001000207D
:102250008DF80100EB46012003E058F804BB4FF075
:10226000FF3061074FF0000102D40DE009F10101D8
:102270008946B9420FDA8145F8DB1BF809100029BD
:10228000F4D108E009F1010189468142FADB1BF82B
:1022900009100029F6D103985346A0EB09072146FF
:1022A0003846179A00F080FA284400EB090507E049
:1022B00044E008E10DE01BF8010B524617999047E6
:1022C000B9F10109F7D2534621463846179AF2E090
:1022D00039E00A21C4F302524FF0000B0091022AA8
:1022E00006D058F8040BC117032A09D00AE023E0EE
:1022F00008F1070020F00702F2E80201904605E02D
:1023000000B2C117042A01D140B2C117002906DA70
:102310000A460021404261EB02012D2202E0220523
:1023200004D52B228DF80420012203E0E20701D01E
:102330002022F7E7914657E00A2100E010214FF0F4
:10234000000B00910BE010214FF0000B44F004044F
:102350000827009103E008204FF0000B0090C4F321
:102360000252022A05D058F8040B0021032A08D093
:1023700008E008F1070020F00702F2E802019046A9
:1023800003E080B2042A00D1C0B24FF00009220756
:102390002AD53278702A07D0DDF800C08CF0100CF6
:1023A0005CEA0B0C05D00EE040228DF804200122DF
:1023B00008E050EA010306D030238DF804308DF890
:1023C000052002229146009B83F0080353EA0B0389
:1023D0000AD150EA010201D1620705D530228DF8F9
:1023E00004204FF001097F1E3278582A04D039A208
:1023F0000C920CAA02920BE03BA2F9E75B46009A12
:10240000FDF784FF0C9B9B5C029A521E0292137094
:1024100050EA0102F2D1029804A9081A00F1200B37
:10242000600702D524F4803400E001275F4502DD17
:10243000A7EB0B0000E0002000EB0B0100900398DD
:102440004944401A0390E00306D453462146179AA4
:10245000039800F0A9F90544002706E001A85246B8
:10246000C05D179990476D1C7F1C4F45F6DBE0035C
:102470000CD553462146179A039800F095F9054468
:1024800004E030205246179990476D1C0099481E71
:1024900000900029F5DC08E0029802995246007885
:1024A000491C0291179990476D1CBBF10001ABF1DB
:1024B000010BF1DC5BE100F065F90544761C307836
:1024C00000287FF40DAE19B02846BDE8F08F00005B
:1024D00009280100303132333435363738396162FA
:1024E00063646566000000003031323334353637BE
:1024F000383941424344454600000000600700D49B
:10250000062708F1070020F00700F0E802238046C4
:1025100003F0004C5FEA0C0001D097A009E0200511
:1025200001D596A005E0E00701D095A001E0AFF24B
:102530004C001390307823F0004365280CD006DC63
:10254000452809D046281DD047287FD13BE0662882
:1025500018D067287AD136E00021112F01DB112035
:1025600000E0781CCDE9000104A90CA8FFF7EEFCFF
:10257000DDE90D010C9A4FF0000B07F101091092F3
:1025800000914EE04FF000400097CDE9011004A902
:102590000CA8FFF7DBFCDDE90D020C9B0F994FF057
:1025A000000B91461093009211B9791C00EB0109C0
:1025B000B7EB090003D4C0F1FF3B07F10109A9EB18
:1025C0000700019042E0012F00DA01270021112FBE
:1025D00001DD112000E03846CDE9000104A90CA876
:1025E000FFF7B4FCDDE90D010C9A00914FF0000BF0
:1025F000B946109221070FD4009A4A4503DA914652
:1026000001E0A9F10109B9F1010F05DD109AA9F165
:102610000101515C3029F4D0B84202DA10F1040F04
:1026200003DA0121CDE9011010E0002803DC834426
:10263000A9EB000102E0411C494500DD8946A0EB01
:102640000B00401C01904FF000400290200705D481
:102650000198484502DB4FF0FF30019000208DF8D3
:102660004B0002980DF14B07B0F1004F25D002202E
:102670000C902B200D90029800280CDA404202901A
:102680002D200D9007E00A210298FDF729FE303138
:10269000029007F8011D0C99481E0C900029F2DCED
:1026A00002980028EFD1791E0D980870307800F05C
:1026B000200040F0450007F8020D11A8C01BC01D06
:1026C00002901398007800B1012000EB09010198F5
:1026D00001EBE071029801440398401A401E0390F8
:1026E000E00306D453462146179A039800F05CF89D
:1026F00005441398007818B15246179990476D1CFD
:10270000E00323D553462146179A039800F04CF86E
:1027100005441BE0BBF1000F07DB0098584504DDC2
:102720001098179910F80B0001E0179930205246C5
:10273000904701980BF1010B401E05F10105019036
:1027400004D12E205246179990476D1CB9F1000113
:10275000A9F10109DEDC05E017F8010B52461799D3
:1027600090476D1C0299481E02900029F4DC5346E4
:102770002146179A03989EE62D0000002B000000CA
:10278000200000002DE9F041044600251E461746B2
:10279000880404D405E039462020B0476D1C641E2F
:1027A000F9D52846BDE8F0812DE9F0410446002521
:1027B0001E469046C80301D5302700E02027880434
:1027C00004D505E041463846B0476D1C641EF9D576
:1027D0002846BDE8F081000070B5084C0546002091
:1027E000216848622046FEF791FD2068416AA942AF
:1027F000FCD3BDE870400148FEF7AABD14000020DC
:1028000004490A685206FCD5024AC1B2121D116081
:102810007047000000380140FEF7E4F9FFF7F4F9D3
:10282000FFF71AF9FFF7B2F9FFF7CCF9FFF77CF9D8
:10283000194F1A4DDFF868904FF4FA764FF40058AC
:102840004FF4805A3046FEF7BBF80720FEF712F827
:102850000446FDF732FD02460B4612A0FFF746FB89
:1028600010213846FEF79EF920B10020AC4203DD6E
:10287000012102E00120F9E70021084301D00022F4
:1028800000E0012241464846FEF799F95146484684
:10289000FEF78DF9D6E700000008014033331542FA
:1028A000000C0140252E32660D0A000000000000D9
:1028B00000000000010203040607080900000000F0
:1028C00001020304E42800080000002014000000B6
:1028D0002C1F0008F828000814000020D404000071
:1028E0003C1F000801000000100000000000000074
:0828F0000024F40000000000C8
:04000005080000ED02
:00000001FF
